:020000040800F2
:100000002804002005010008E9040008FF03000897
:10001000E50400084D010008830D00080000000001
:10002000000000000000000000000000C9060008F9
:10003000510100080000000071050008490800088F
:100040001F0100081F0100081F0100081F01000810
:100050001F0100081F0100081F01000855010008CA
:100060001F0100081F0100081F0100081F010008F0
:100070001F0100081F0100081F0100081F010008E0
:100080001F0100081F0100081F0100081F010008D0
:100090001F0100081F0100081F0100089901000846
:1000A0001F0100081F0100081F0100081F010008B0
:1000B000090900081F0100081F0100081F010008AE
:1000C0001F0100081F0100081F0100081F01000890
:1000D0001F010008390A00081F0100081F0100085D
:1000E0001F0100081F0100081F010008DFF810D0E1
:1000F00000F01AF800480047A50D0008AFF3008093
:10010000280400200648804706480047FEE7FEE72F
:10011000FEE7FEE7FEE7FEE7FEE7FEE7FEE7FEE7B7
:100120004D080008ED000008064C074D06E0E068A9
:1001300040F0010394E8070098471034AC42F6D32E
:10014000FFF7D8FF600E0008800E000800BFFEE732
:100150007047000010B5022000F046F818B10AA15F
:100160000B4800F0E6FA002000E0401C09498842F4
:10017000FBDB022000F032F800BF022000F034F870
:100180000028FAD110BD00002453544152544000BD
:100190000038014040420F0010B5202000F024F844
:1001A00018B10AA10B4800F0C4FA002000E0401C7E
:1001B00009498842FBDB202000F010F800BF202016
:1001C00000F012F80028FAD110BD00002453544F5B
:1001D000504000000038014040420F0001490860D3
:1001E0007047000014040140014600200022074B24
:1001F0001B6803EA0102054B14331B680B4013B163
:100200000AB1012000E00020704700000004014016
:10021000002123498279002A3AD00A4612680368ED
:100220009A430B461A600A1D126803689A430B1D15
:100230001A60027911440A6803681A430A60184A6E
:100240000832126803689A43154B08331A601A1D66
:10025000126803689A43124B0C331A604279102AD1
:100260000ED11A1F126803681A430D4B08331A6027
:100270001A1D126803681A43094B0C331A600DE00B
:100280000749427911440A6803681A430A6005E085
:10029000027911440A6803689A430A6070470000B3
:1002A0000004014030B500228B071C0F0F2303FA16
:1002B00004F20B4B8C1053F824309343084C8D10F0
:1002C00044F8253023468C1053F824308C07240F33
:1002D00000FA04F42343024C8D1044F8253030BD5D
:1002E000080001402DE9F0410246002500260020CB
:1002F00000230024002791F803C00CF00F0591F8AB
:1003000003C00CF0100CBCF1000F03D091F802C038
:100310004CEA050591F800C0BCF1000F31D014681B
:1003200000202BE04FF0010C0CFA00F3B1F800C0F4
:100330000CEA03069E4220D183004FF00F0C0CFA0A
:1003400003F7BC4305FA03FC4CEA040491F803C02C
:10035000BCF1280F06D14FF0010C0CFA00FCC2F8DA
:1003600014C00AE091F803C0BCF1480F05D14FF06A
:10037000010C0CFA00FCC2F810C0401C0828D1D3B4
:100380001460B1F800C0BCF1FF0F34DD54680020E8
:100390002EE000F1080C4FF0010808FA0CF3B1F858
:1003A00000C00CEA03069E4221D183004FF00F0CDF
:1003B0000CFA03F7BC4305FA03FC4CEA040491F879
:1003C00003C0BCF1280F05D100F1080C08FA0CF8A5
:1003D000C2F8148091F803C0BCF1480F07D100F1B6
:1003E000080C4FF0010808FA0CF8C2F81080401C05
:1003F0000828CED35460BDE8F0814161704700BF4A
:10040000FEE710B500F062F900F0D8FC00F0ECFC5B
:1004100010BD00001FB50121084600F0CBF80121F6
:10042000082000F0C7F848208DF80F002220ADF812
:100430000C0003208DF80E0003A92448FFF752FF9B
:100440000220019001208DF80A0000208DF808009C
:100450000C208DF8090001A8FFF7DAFE202001909A
:1004600001208DF80A0000208DF808000C208DF87E
:10047000090001A8FFF7CCFE01210846FFF712FF93
:1004800005210120FFF70EFF4FF4A06000F066F891
:1004900007208DF8000001208DF803008DF8010081
:1004A00000208DF80200684600F020F817208DF833
:1004B000000001208DF803008DF8010000208DF868
:1004C0000200684600F012F81FBD0000000C014059
:1004D00010B54FF480710248FFF78FFF10BD000088
:1004E000000C014000BFFEE77047000070B500211E
:1004F00000230F22C47804B3154C246804F4E0648C
:10050000C4F5E064210AC1F10403CA40447804FA46
:1005100003F184781440214309010E4C0678A1555B
:10052000047804F01F050124AC4005786D11AD007E
:1005300005F1E025C5F8004109E0047804F01F0545
:100540000124AC40044D0678761145F8264070BD74
:100550000CED00E000E400E080E100E0024901432E
:10056000024A1160704700000000FA050CED00E03F
:100570007047000029B1064AD2690243044BDA6190
:1005800004E0034AD2698243014BDA6170470000FC
:100590000010024029B1064A12690243044B1A6155
:1005A00004E0034A12698243014B1A61704700005C
:1005B0000010024029B1064A92690243044B9A6135
:1005C00004E0034A92698243014B9A61704700003C
:1005D0000010024029B1064AD2680243044BDA6097
:1005E00004E0034AD2688243014BDA60704700009E
:1005F0000010024030B500210022002400232D4DC0
:100600006D6805F00C0121B1042905D0082923D11A
:1006100005E0294D056022E0274D05601FE0254DCE
:100620006D6805F47012234D6D6805F48034022561
:1006300005EB92421CB9214D554305600BE01D4D61
:100640006D6805F400351DB11C4D5543056002E091
:10065000194D5543056002E0174D056000BF00BF0E
:10066000144D6D6805F0F0010909154D6B5C0568C6
:10067000DD4045600F4D6D6805F4E061090A104DDD
:100680006B5C4568DD4085600A4D6D6805F460511E
:10069000C90A0B4D6B5C4568DD40C560054D6D6852
:1006A00005F44041890B074D6B5CC568B5FBF3F55C
:1006B000056130BD0010024000127A0000093D00C3
:1006C00000000020100000207047000008B5012144
:1006D0000420FFF76FFF18208DF803004FF400701F
:1006E000ADF8000003208DF8020069460848FFF7C6
:1006F000F9FD04208DF803000002ADF8000003208E
:100700008DF8020069460248FFF7ECFD08BD0000C5
:100710000008014070B504460D462946204600F009
:100720002CFB00BF8021204600F05AFA0028F9D0A7
:1007300070BD70B506460C46002505E0615D30468B
:10074000FFF7E8FF681CC5B2605D0028F6D100BF66
:100750004021304600F044FA0028F9D070BD10B5B1
:1007600000F002F810BD00000CB5002001900090D0
:100770003348006840F480303149086000BF304899
:10078000006800F4003000900198401C019000982F
:1007900018B90198B0F5A06FF1D12948006800F4AC
:1007A000003010B10120009001E00020009000987E
:1007B000012843D12348006840F010002149086017
:1007C0000846006820F0030008600846006840F012
:1007D000020008601A4840681949486008464068A5
:1007E00048600846406840F48060486008464068B9
:1007F00020F47C1048600846406840F4E8104860E7
:100800000846006840F08070086000BF0C4800682F
:1008100000F000700028F9D00948406820F003007B
:10082000074948600846406840F00200486000BF41
:100830000348406800F00C000828F9D10CBD000006
:1008400000100240002002407047000010B513481D
:10085000006840F0010011490860084640681049EE
:1008600008400E494860084600680E4908400B4998
:1008700008600846006820F4802008600846406848
:1008800020F4FE0048604FF41F008860FFF767FF08
:100890004FF000600449086010BD000000100240E5
:1008A0000000FFF8FFFFF6FE08ED00E07FB505460B
:1008B0000C4601210846FFF75DFEADF80850ADF883
:1008C00004400020ADF80A00ADF8060001A94FF081
:1008D000804000F05FF801224121880700F050F8C5
:1008E0000121880700F02FF81C208DF8000000205F
:1008F0008DF8010003208DF8020001208DF803001F
:100900006846FFF7F3FD7FBD10B50121880700F0B1
:1009100026F801280BD10848007810B9FFF7D8FD58
:1009200005E00648006880F48070044908600121F1
:10093000880700F005F810BD150000200C0C0140E0
:10094000CA430282704721B1028842F0010202804C
:1009500004E002884FF6FE731A400280704730B5FB
:100960000246002000230024158A05EA0103958928
:1009700005EA010413B10CB1012000E0002030BDF4
:100980001AB183890B43838102E083898B4383817E
:1009900070470000002202881D4B98420ED01D4B6C
:1009A00098420BD0B0F1804F08D01B4B984205D035
:1009B0001A4B984202D01A4B984204D14FF68F73CB
:1009C0001A404B881A43174B984207D0164B98424F
:1009D00004D04FF6FF431A40CB881A4302808B881D
:1009E00083850B8803850A4B98420BD0094B9842AC
:1009F00008D00E4B984205D00D4B984202D00D4BBB
:100A0000984201D10B7A038601238382704700004C
:100A1000002C014000340140000400400008004068
:100A2000000C004000100040001400400040014055
:100A3000004401400048014070B540F225512F4864
:100A400000F0DBF8002853D02C4800F091F9C1B237
:100A50002B4802780078401C294B18702948815493
:100A600018460078022843DD00243BE02548005D5D
:100A7000242800D125462348005D402830D1214953
:100A8000A81D085C2049087008460078312819DB49
:100A900008460078392815DC4FF08040008840F087
:100AA00001004FF08041088017480078303840F24C
:100AB000712148434FF6FF7101EA00104FF0804169
:100AC000888509E04FF08040008820F001004FF059
:100AD00080410880FFF7FCFC00200949087005E010
:100AE000601CC4B2064800788442BFDB00BF00BF70
:100AF00040F22551014800F009F870BD003801406E
:100B000014000020180000201500002010B500225D
:100B1000002340F66A14A14200D100BF0A1201244A
:100B20009440A3B2DC43048010BD21B1828942F419
:100B30000052828104E082894DF6FF731A4082815F
:100B40007047000010B504462048844209D10121B5
:100B50008803FFF73FFD00214FF48040FFF73AFD87
:100B600032E01B48844209D101214804FFF712FDFD
:100B700000214FF40030FFF70DFD25E015488442B9
:100B800009D101218804FFF705FD00214FF48020E1
:100B9000FFF700FD18E01048844209D10121C80484
:100BA000FFF7F8FC00214FF40020FFF7F3FC0BE007
:100BB0000A48844208D101210805FFF7EBFC002117
:100BC0004FF48010FFF7E6FC10BD00000038014034
:100BD0000044004000480040004C004000500040ED
:100BE00002460020B1F5007F00D100BF13880B4002
:100BF0000BB1012000E00020704770B502460024D0
:100C000000230025002040F66A16B14200D100BF43
:100C1000C1F3421501F01F03012606FA03F3012D6B
:100C200002D19689334006E0022D02D1168A334064
:100C300001E0968A33400C12012606FA04F4168865
:100C4000344013B10CB1012000E0002070BDF0B5BC
:100C50000346002400260025002040F66A17B9420A
:100C600000D100BF1846C1F3421401F01F0601274E
:100C700007FA06F5012C01D10C3004E0022C01D159
:100C8000103000E014301AB107682F43076002E00B
:100C90000768AF430760F0BD2DE9F04786B0054611
:100CA0000E460024A24600BFA1460027B08900B12D
:100CB00000BF2F462C8A4CF6FF700440F088044396
:100CC0002C82AC894EF6F3100440B0883189084379
:100CD000718908430443AC81AC8A4FF6FF4004405D
:100CE000B0890443AC8201A8FFF784FC1F48874207
:100CF00002D1DDF810A001E0DDF80CA0A88900F415
:100D0000004040B10AEBCA0000EB0A10316849000C
:100D1000B0FBF1F807E00AEBCA0000EB0A103168FB
:100D20008900B0FBF1F86420B8FBF0F00401200961
:100D3000642101FB1089A88900F4004040B13220F1
:100D400000EBC900B0FBF1F000F00700044308E03D
:100D5000322000EB09106421B0FBF1F000F00F002D
:100D600004432C8106B0BDE8F08700000038014044
:100D700001468888C0F308007047C1F308028280EA
:100D8000704700BFFEE702E008C8121F08C1002A32
:100D9000FAD170477047002001E001C1121F002AFC
:100DA000FBD17047FFF72DFBFFF734FB40F2CF215B
:100DB00041F28730FFF77AFD00BFFEE708B5012159
:100DC0000820FFF7F7FB4FF48070ADF8000010200B
:100DD0008DF8030003208DF8020069460148FFF7F3
:100DE00081FA08BD000C014000B585B001218803DF
:100DF000FFF7E0FB1948FFF7A5FE4FF4A060FFF7EF
:100E0000ADFB25208DF8000000208DF801008DF845
:100E1000020001208DF803006846FFF767FB4FF4DE
:100E2000E13001900020ADF80C00ADF80A00ADF8FB
:100E30000800ADF810000C20ADF80E0001A907481D
:100E4000FFF72AFF012240F225510448FFF7FFFE79
:100E500001210248FFF769FE05B000BD00380140DE
:100E6000800E00080000002018000000860D000819
:100E7000980E00081800002010040000960D0008CD
:100E80000000000001020304010203040607080930
:080E9000020406080000000046
:04000005080000ED02
:00000001FF
